:020000020000FC
:200000000874004089140840683A0800000000000000000000000000000000000000000095
:20001000ED04DEFF0015DFC00215D8400315D8800415D8C00515D9000615D9400715D98062
:200020000815D9C0307A000B0915DA000A15DA400B15DA800C15DAC00D15DB000E15DB40B4
:200030000F15DB801015DBC01115D940FF04EBFF1215DBC0313A0009004C288003261000E2
:20004000022620000FC00210070600001215DF40FF17E8BFFF04E93F1C400210021E10009E
:20005000FF04EBFF1215DBC01117D9401217DF400017DFC0707A28010217D8400317D880EC
:200060000417D8C00517D9000617D9400717D9800817D9C00917DA000A17DA400B17DA80C2
:200070000C17DAC00D17DB000E17DB400F17DB801017DBC01304DEC0083AEF80F904DEFFF1
:200080000615DFC00515DF000504DF00883A0001313A0005FC15E0BFFC17E0BFFF15E0BF7D
:20009000FD15E03F00440080FE15E0BFFF17E0FFFE17E0BF703A188411261000FD17E0BFC0
:2000A00090FA100608740080883A1885971710D5FD17E0BF90FA100808740080883A2085FA
:2000B00098171095883A1009E83A183E883A0001313A0005FB15E0BFFB17E0BF07060000E9
:2000C000FE17E0BF883A1085FE15E0BFFD17E0BF00441080FD15E0BFE406003FFF15E0BF4F
:2000D000FF17E0BFDE1E103F883A0001883A0001883AE0370117DFC00017DF000204DEC060
:2000E000283AF800FB04DEFF0415DFC00315DF000304DF00FD15E13FFFC400BFFF15E0BFCE
:2000F000FE15E03FEF17D0A507261000EF17D0A5FF17E0FFFE17E1BFFD17E17F883A18098A
:20010000E83A103E02060000A03A003D883A0005883AE0370117DFC00017DF000204DEC05F
:20011000283AF80008B406C00014DEC008740680A614D6AF087400808F141095087400C080
:20012000D71418D5032610C00015100001041080FD3610FF2E80021036C00210FF06003FE6
:20013000FF04DEFF0015DF00883AD839883A0005883AE0370017DF000104DEC0283AF80075
:20014000FC04DEFF0315DF000304DF00FF15E13FFE15E17FFD15E1BFFE17E0FFFF17E0BFE3
:200150000C26188008060000FF17E0FF01041880FF15E0BFFE17E0BF01041100FE15E13F75
:20016000001718C0001510C0FE17E0FFFD17E0BFF51E18BF883A0001883AE0370017DF0088
:200170000104DEC0283AF800FE04DEFF0115DFC00015DF00883AD83908740180B104318FA5
:2001800008740140D304294908740100B104210F28000210087401808904318008740140C5
:200190000804294008740100080421002800021008740180D304318908740140B404294981
:2001A00008740100B4042109280002104F0002116E800211883A0001883AE0370117DFC0F0
:2001B0000017DF000204DEC0283AF800FD04DEFF0215DFC00115DF000104DF00883A000903
:2001C00041C00210883A00014580021008740180B404318908740140B4042949087401009F
:2001D000B4042109A74002116200021108740100A104210529000212E917D0A5EA17D0E50E
:2001E000EB17D125883A200D883A180B883A100926000210FF15E0BF004401004140021194
:2001F000FF17E13F2A400212FD04DEFF0215DFC00115DF000104DF00FF15E13F0204D16063
:20020000FF17E13F57800211883AE0370117DFC00017DF000204DEC0283AF800FD04DEFF5C
:200210000215DFC00115DF000104DF00FF15E13FF840021100440080703A1001883A00017E
:20022000883A0001883AE0370117DFC00017DF000204DEC0283AF800FD04DEFF0215DFC0E3
:200230000115DF000104DF0001C40180883A000B08740100DD0421099940021008740100D2
:20024000D30421093E80021008740080F517108D00171080883A100708740080F61510CDC4
:2002500008740080F517108D0104108000171080883A100708740080F71510CD08740080F3
:20026000F517108D0204108000171080FFCC10FF08740080FA1510CD08740080F517108D31
:200270000204108000171080D43A100608740080FB1510CD08740080F517108D03041080E8
:2002800000171080D07A1005004C10C008740080F81510CD08740080F517108D030410801A
:2002900000171080D13A100503CC10C008740080F91510CD08740080F517108D03041080C5
:2002A00000171080D43A1005FFC5E0BF08740080F517108D0304108000171080D63A10040A
:2002B000FF85E0BF08740080F917108D00581080031E100008740080FC15100D0B0600000E
:2002C00008740080F917108D00981080041E1000004400C008740080FC1510CD0306000024
:2002D000008400C008740080FC1510CDFFC3E0BF080400C0C83A1885FFC400FFD83A1886A2
:2002E00008740080FD1510CDFFC3E0FF08740080FC17108D883A188708740080FE1510CD79
:2002F000FF83E0BF080400C0C83A1885FFC400FFD83A188608740080FF1510CD0874010086
:20030000EB04210D3E800210087400800A17108E0017108003CC10C0087400800B1510CEF5
:20031000087400800A17108E00171080D13A1005004C10C0087400800C1510CE0874008038
:200320000A17108E00171080D17A1005004C10C0087400800D1510CE087400800A17108E24
:2003300000171080D43A100503CC10C0087400800E1510CE087400800A17108E00171080E5
:20034000D53A1005004C10C0087400800F1510CE087400800A17108E00171080D57A100599
:20035000004C10C008740080101510CE087401000004210E3E800210087400801B17108E26
:200360000017108003CC10C0087400801C1510CE087400801B17108E00171080D13A100599
:20037000004C10C0087400801D1510CE087400801B17108E00171080D17A1005004C10C056
:20038000087400801E1510CE087400801B17108E00171080D43A100503CC10C0087400801F
:200390001F1510CE087400801B17108E00171080D53A1005004C10C008740080201510CE79
:2003A000087400801B17108E00171080D57A1005004C10C008740080211510CE08740100BD
:2003B0001104210E3E800210087400802C17108E0017108003CC10C0087400802D1510CEDA
:2003C000087400802C17108E00171080D13A1005004C10C0087400802E1510CE0874008044
:2003D0002C17108E00171080D17A1005004C10C0087400802F1510CE087400802C17108E0E
:2003E00000171080D43A100503CC10C008740080301510CE087400802C17108E00171080F1
:2003F000D53A1005004C10C008740080311510CE087400802C17108E00171080D57A1005A5
:20040000004C10C008740080321510CE087401002204210E3E800210883A0001883AE03761
:200410000117DFC00017DF000204DEC0283AF800FA04DEFF0515DFC00415DF000404DF00AE
:20042000FE15E13FFD15E17FFC15E1BFFE17E0BF00171080FF15E0BFFF17E0BF0A0410C0C5
:20043000FE17E0BF02171080883A100FFC17E1BFFD17E17F883A1809E5C00210883AE037D4
:200440000117DFC00017DF000204DEC0283AF800FA04DEFF0515DFC00415DF000404DF007E
:20045000FE15E13FFD15E17FFC15E1BFFE17E0BF00171080FF15E0BFFF17E0BF0A0410C095
:20046000FE17E0BF02171080883A100FFC17E1BFFD17E17F883A180907C00211883AE03781
:200470000117DFC00017DF000204DEC0283AF800FC04DEFF0315DFC00215DF000204DF0052
:20048000FE15E13FFE17E0BF00171080FF15E0BFFF17E0BF0A0410C0FE17E0BF021710802B
:20049000883A100B883A1809D0000210883AE0370117DFC00017DF000204DEC0283AF80026
:2004A000FA04DEFF0515DFC00415DF000404DF00FE15E13FFD15E17FFC15E1BFFE17E0BFBF
:2004B00000171080FF15E0BFFF17E0BF0A041080FC17E1BFFD17E17F883A1009D680021015
:2004C000883AE0370117DFC00017DF000204DEC0283AF800FA04DEFF0515DFC00415DF000C
:2004D0000404DF00FF15E13FFE15E17FFD15E1BFFF17E0BF004400C0081510C0FF17E0BF71
:2004E0000017108001041080883A1007FF17E0BF0817108000351880FE17E0BFFD17E0FF0F
:2004F0000015D800FF17E1FF0874018095043182883A180B883A100970800211FF17E0BF48
:2005000009151000FF17E0BF02041080ED17D0E5FF17E1FF0874018018043183883A180B01
:20051000883A10092A400211040E1000FF17E0FF003400A0FFC410BF01151880883A000185
:20052000883AE0370117DFC00017DF000204DEC0283AF800F804DEFF0715DF000704DF0079
:20053000F915E13FF917E0BFFD15E0BFFD17E0BF00171080FC15E0BFFC17E0BF01041080CC
:2005400000371080FB15E0BFFB17E0BFC00C10806D261000FB17E0BF400C1080352610007D
:2005500000740080FF15E0BFFD17E0BF0A17108000441080FFCC1081FA15E0BFFD17E0BFEF
:200560000B171080FA17E0FF15261880FC17E0BF00371080FF15E0BFFF17E0BF000C10A069
:2005700011261000FD17E0BF0A171080FF17E0FF883A1809FD17E0FF883A18850E05110072
:20058000FD17E0BF0A17108000441080FFCC10C1FD17E0BF0A1510C0883A0001E206003FFB
:20059000883A000101060000883A0001FF17E0BFFFEC10BF0F261000FD17E0BF081710C068
:2005A000FF8400BF703A1886FD17E0BF081510C0FC17E0BF01041080883A1007FD17E0BF3E
:2005B0000817108000351880FC17E0BF0104108000371080FB17E0BF800C1080BE26103FA1
:2005C000FB17E0BFD43A1004FE15E0BF14060000FC17E0BFFD17E0FF0D1718C0FD17E13FA7
:2005D000883A20C70E0318C23FCC18C0201C18C0E00418FF003510C0FD17E0BF0D17108019
:2005E00000441080FFCC10C1FD17E0BF0D1510C0883A0001FE17E0BFFFC410BFFE15E0BF2B
:2005F000FE17E0BF05261000FD17E0BF0D1710C0FD17E0BF0C171080E51E18BFFE17E0BF61
:200600009D26103FFD17E0BF081710C0FF4400BF703A1886FD17E0BF081510C0FD17E0BF89
:200610000017108001041080883A1007FD17E0BF0817108000351880FC17E0BF010410803F
:20062000003710808C06003F883A0001883A0001883AE0370017DF000104DEC0283AF800D0
:20063000FC04DEFF0315DF000304DF00FD15E13FFD17E0BFFF15E0BFFF17E0BF00171080FC
:200640000104108000371080FE15E0BFFE17E0BF000C10810B261000FF17E0BF001710809E
:2006500001041080883A1007FF17E0BF081710800014108100351880FF17E0BF0915100063
:200660000A060000FF17E0BF091710C0003400A0FF0410BF053610C0FF17E0BF09171080AF
:20067000004410C0FF17E0BF091510C0ED17D0A5883AE0370017DF000104DEC0283AF8006E
:20068000FD04DEFF0215DF000204DF00FF15E13FFE15E17F05060000FE17E0BF000C10908F
:2006900002261000FD4400BF0B060000FF17E0BF0D1710C0FF17E0BF0C171080052618802D
:2006A000FF17E0BF091710C0FF17E0BF01171080F13618BF883A0005883AE0370017DF00A4
:2006B0000104DEC0283AF800FA04DEFF0515DF000504DF00FD15E13FFC15E17FFB15E1BF1E
:2006C000F9C400BFFF15E0BFFC17E0BF8060109A041E1000FC17E0BF80A0109A181E1000BB
:2006D00029060000FD17E0BF011710C0003400A0FFC410BF21261880FB17E0BF00171080A3
:2006E000FE15E0BFFE17E0BF00901080061E1000FE17E0FF003400A0FFC410BF0226188026
:2006F000FE17E0BF02060000003400A0FF8410BFFD17E0FF01151880FF15E03F0F0600001F
:20070000FD17E0BF011710C0003400A0FFC410BF0C261880FD17E0BF091710C0FD17E0BFB8
:2007100001171080803A18853FCC10C0FB17E0BF001510C0FF15E03F02060000883A00015B
:2007200001060000883A0001FF17E0BF883AE0370017DF000104DEC0283AF800F304DEFF9A
:200730000C15DFC00B15DF000B04DF00F815E13FF715E17FF615E1BFF515E1FFF717E0BF21
:20074000FF15E0BF47060000F817E0BF0A171080FD15E0BFF817E0BF0B171080FC15E0BF79
:20075000FD17E0FFFC17E0BF05361880FD17E0FFFC17E0BFC83A1885FE15E0BF0406000011
:20076000000400C2FC17E0BFC83A1885FE15E0BFFE17E0BF1E261000F617E0FFFE17E0BF08
:20077000022E1880F617E0BFFE15E0BFF817E0BF0E0410C0FC17E0BF883A1885FE17E1BFED
:20078000883A100BFF17E13F35000212FF17E0FFFE17E0BF883A1885FF15E0BFF617E0FF56
:20079000FE17E0BFC83A1885F615E0BFFC17E0FFFE17E0BF883A1885FFCC10C1F817E0BFFD
:2007A0000B1510C0F617E0BFCF1600BF01060000883A0001FF17E0FFF717E0BF141E1880C3
:2007B000F517E0BF000C1090131E1000883A0001F817E0BF0A171080FD17E0FF051E1880C1
:2007C000F817E0BF091710C0F817E0BF01171080F73618BFF817E0BF0A171080FD17E0FFCF
:2007D00007261880F617E0BFB71600BF05060000883A000103060000883A0001010600006B
:2007E000883A0001FF17E0FFF717E0BF19261880303A0005F915E0BFF917E0FFFF8400BF70
:2007F000703A1884703A1001F917E0BFFB15E0BFF817E0BF08171080005410C0F817E0BF5B
:20080000081510C0F817E0BF0017108001041080883A1007F817E0BF0817108000351880FE
:20081000FB17E0BFFA15E0BFFA17E0BF703A1001883A0001FF17E0FFF717E0BF04261880D7
:20082000FF17E0FFF717E0BFC83A188506060000F517E0BF000C109002261000FD4400BFDC
:2008300001060000FEC400BF883AE0370117DFC00017DF000204DEC0283AF800F304DEFFC8
:200840000C15DFC00B15DF000B04DF00F815E13FF715E17FF615E1BFF515E1FFFF15E03F8A
:20085000F717E0BFFD15E0BF37060000F817E0BF0C171080FC15E0BFF817E0BF0D1710807A
:20086000FF15E0BFFC17E0FFFF17E0BF062E1880FF17E0FFFC17E0BFC83A1885FFC410BF7A
:20087000FE15E0BF0B060000FF17E0BF05261000000400C2FC17E0BFC83A1885FE15E0BFEC
:2008800004060000FFC400C1FC17E0BFC83A1885FE15E0BFFE17E0BF1E261000F617E0FFD3
:20089000FE17E0BF022E1880F617E0BFFE15E0BFF817E0BF0E0410C2FC17E0BF883A1885CB
:2008A000FE17E1BFF717E17F883A100935000212F717E0FFFE17E0BF883A1885F715E0BF46
:2008B000F617E0FFFE17E0BFC83A1885F615E0BFFC17E0FFFE17E0BF883A1885FFCC10C19E
:2008C000F817E0BF0C1510C0F617E0BFC71600BF01060000883A0001303A0005F915E0BF4B
:2008D000F917E0FFFF8400BF703A1884703A1001F917E0BFFB15E0BFF817E0BF081710801B
:2008E000009410C0F817E0BF081510C0F817E0BF0017108001041080883A1007F817E0BF88
:2008F0000817108000351880FB17E0BFFA15E0BFFA17E0BF703A1001883A0001F617E0BF33
:20090000100E0080F517E0BF000C1090101E1000883A0001F817E0BF0D171080FF17E0FF8A
:20091000051E1880F817E0BF091710C0F817E0BF01171080F73618BFF817E0BF09171080B6
:20092000051E1000F617E0BFCF1600BF03060000883A000101060000883A0001F717E0FFB1
:20093000FD17E0BF04261880F717E0FFFD17E0BFC83A188506060000F517E0BF000C109090
:2009400002261000FD4400BF01060000FEC400BF883AE0370117DFC00017DF000204DEC0AD
:20095000283AF800F504DEFF0A15DF000A04DF00F915E13FF815E17FF715E1BFF615E1FF3A
:20096000FF15E03FED17D0A53E261000F917E0BF3A261000F917E0BFF717E0FF031510C0B4
:20097000F917E0BFF617E0FF051510C0303A0005FD15E0BFFD17E0FFFF8400BF703A188447
:20098000703A1001FD17E0BFFE15E0BFEE17D0A5FF15E0BFF817E0FFFF17E0BF883A188508
:20099000004410C0F917E0BF021510C0F917E0BF021710C0FF17E0BF042E1880F917E0BFD7
:2009A000004400C0040510C002060000F917E0BF04051000F917E0BF0704D0E0FB15E0FF31
:2009B000FA15E0BFFA17E0BFFB17E0FF011510C0FB17E0BF001710C0FA17E0BF001510C0C5
:2009C000FB17E0BF00171080FA17E0FF011510C0FB17E0BFFA17E0FF001510C0883A0001A0
:2009D000FE17E0BFFC15E0BFFC17E0BF703A1001883A0001883A000503060000FA8400BF66
:2009E00001060000DE8400BF883AE0370017DF000104DEC0283AF800FE04DEFF0115DFC06F
:2009F0000015DF00883AD8390517D0A0032610000517D0A0E83A103E01060000F004D0A5EF
:200A0000883AE0370117DFC00017DF000204DEC0283AF800FB04DEFF0415DFC00315DF00C7
:200A10000304DF00FD15E13FFD17E0BF09161000FD17E0FF883A1805883A1085883A10C50C
:200A200090BA1004087400C03D0418CE883A10C501060000883A0005FF15E0BFFF17E0BF28
:200A300019261000FF17E0BF001710800417108006261000FF17E0BF00171080041710800D
:200A4000FF17E13FE83A103E01060000883A0005FE15E0BFFD17E13FD6800211FE17E0BF1F
:200A5000070E10003D800211883A1007FE17E0BFC83A008500151880FFC400BF0706000041
:200A6000883A0005050600003D800211883A10071444008000151880FFC400BF883AE0371B
:200A70000117DFC00017DF000204DEC0283AF800FF04DEFF0015DF00883AD839883A000151
:200A8000883AE0370017DF000104DEC0283AF800FC04DEFF0315DF000304DF00FF15E13F9C
:200A9000FE15E17FFD15E1BFFD17E0BF883AE0370017DF000104DEC0283AF800FE04DEFFC3
:200AA0000115DFC00015DF00883AD8390517D0A0032610000517D0A0E83A103E01060000F2
:200AB000F004D0A5883AE0370117DFC00017DF000204DEC0283AF800FA04DEFF0515DFC0A5
:200AC0000415DF000404DF00FD15E13FFC15E17FFD17E0BF03261000FD17E0BF021710804C
:200AD000061E100053C00211883A10070584008000151880FA8400BF14060000FD17E0BF13
:200AE000FC17E0FFFF15E0FFFE15E0BFFE17E0BFFF17E0FF011510C0FF17E0BF001710C034
:200AF000FE17E0BF001510C0FF17E0BF00171080FE17E0FF011510C0FF17E0BFFE17E0FF6E
:200B0000001510C0883A0001883A0005883AE0370117DFC00017DF000204DEC0283AF800E2
:200B1000FD04DEFF0215DFC00115DF000104DF0008740080B3041089FF15E0BF060600004D
:200B2000FF17E0BF00171080E83A103EFF17E0BFFF0410BFFF15E0BFFF17E0FF08740080BE
:200B3000B4041089F62E18BF883A0001883A0001883AE0370117DFC00017DF000204DEC0A9
:200B4000283AF800FD04DEFF0215DFC00115DF000104DF0008740080B3041089FF15E0BFCF
:200B500006060000FF17E0BF00171080E83A103EFF17E0BFFF0410BFFF15E0BFFF17E0FF7E
:200B600008740080B4041089F62E18BF883A0001883A0001883AE0370117DFC00017DF0021
:200B70000204DEC0283AF800FF04DEFF0015DF00883AD839883A0001883AE0370017DF002E
:200B80000104DEC0283AF800F904DEFF0615DFC00515DF000504DF00FF15E13FFE15E17F3C
:200B9000FD15E1BFFC15E1FF0217E0800015D880FC17E1FFFD17E1BFFE17E17FFF17E13F6A
:200BA0008B800211883AE0370117DFC00017DF000204DEC0283AF800F904DEFF0615DF00BF
:200BB0000604DF00FB15E13FFA15E17FFA17E0BFFF15E0BF303A0005FE15E0BFFE17E0FF25
:200BC000FF8400BF703A1884703A1001FE17E0BFFD15E0BF004400C0FF17E0BF983A188446
:200BD000883A1007EC17D0A5B03A1884EC15D0A5EC17D0A570FA1001FD17E0BFFC15E0BF62
:200BE000FC17E0BF703A1001883A0001883A0005883AE0370017DF000104DEC0283AF80032
:200BF000F904DEFF0615DF000604DF00FB15E13FFA15E17FFA17E0BFFF15E0BF303A0005B7
:200C0000FE15E0BFFE17E0FFFF8400BF703A1884703A1001FE17E0BFFD15E0BF004400C082
:200C1000FF17E0BF983A1884303A0084883A1007EC17D0A5703A1884EC15D0A5EC17D0A52E
:200C200070FA1001FD17E0BFFC15E0BFFC17E0BF703A1001883A0001883A0005883AE03706
:200C30000017DF000104DEC0283AF800FC04DEFF0315DF000304DF00FE15E13FFD15E17F52
:200C400030FA0005FF15E0BF004400C0FD17E0BF983A1884883A1007FF17E0BF703A1884B9
:200C5000C03A10043FCC1080883AE0370017DF000104DEC0283AF800F504DEFF0A15DFC07B
:200C60000915DF000904DF00FA15E13FF915E17FF815E1BFF715E1FFFA8400BFFF15E0BF65
:200C7000F917E0BFFE15E0BFFE17E0BF08081080251E1000303A0005FC15E0BFFC17E0FF4B
:200C8000FF8400BF703A1884703A1001FC17E0BFFD15E0BFFE17E0BF90FA1008F817E0FF6A
:200C900008740080883A2085971510D5FE17E0BF90FA1008F717E0FF08740080883A2085AA
:200CA000981510D5F817E0BF05261000FE17E0BF883A100BFA17E13F7580021104060000E5
:200CB000FE17E0BF883A100BFA17E13F7E000211FF15E0BFFD17E0BFFB15E0BFFB17E0BF0B
:200CC000703A1001883A0001FF17E0BF883AE0370117DFC00017DF000204DEC0283AF8005D
:200CD000F904DEFF0615DFC00515DF000504DF00FE15E13FFD15E17FFC15E1BFFB15E1FF49
:200CE000FB17E1BFFC17E17FFD17E13FC0800211FF15E0BFFF17E0BF20161000FF17E0FFA5
:200CF000883A1805883A1085883A10C590BA1004087400C0883A10C73D1718CEFE17E0BFF6
:200D0000001510C0FF17E0FF883A1805883A1085883A10C590BA1004087400C0883A10C7F9
:200D10003E1718CEFE17E0BF011510C0FF17E0FF883A1805883A1085883A10C590BA1004CE
:200D2000087400C0883A10C73F1718CEFE17E0BF021510C0FF17E13FD6800211883A0001A5
:200D3000883AE0370117DFC00017DF000204DEC0283AF800FB04DEFF0415DFC00315DF0094
:200D40000304DF00FF15E13FFE15E17FFD15E1BF7FC401C000440180FF17E17F0874010098
:200D50004004210E9A0002117FC401C0883A000DFE17E17F087401003D04210E9A00021181
:200D60007FC401C000440180FD17E17F087401004304210E9A000211883A0001883AE037FA
:200D70000117DFC00017DF000204DEC0283AF800FE04DEFF0115DFC00015DF00883AD8395D
:200D80000517D0A0032610000517D0A0E83A103E01060000F004D0A5883AE0370117DFC092
:200D90000017DF000204DEC0283AF800FD04DEFF0215DF000204DF00FE15E13FFE17E0BFAF
:200DA00002171080003410D0FE17E0BF021510C0FF15E03F23060000FF17E0FF883A1805AB
:200DB000883A1085883A10C590BA1004087400C0883A10C73D1718CEFE17E0BF001710806D
:200DC000151E1880FF17E0FF883A1805883A1085883A10C590BA1004087400C0883A10C753
:200DD0003F17188E0C0E1000FF17E0FF883A1805883A1085883A10C590BA1004087400C081
:200DE0003D0418CE883A10C5FE17E0FF02261880FCC400BF08060000FF17E0BF004410806B
:200DF000FF15E0BF0417D0A0883A1007FF17E0BFD92E18BF883A0005883AE0370017DF00A3
:200E00000104DEC0283AF800F604DEFF0915DFC00815DF000804DF00FA15E13FF915E17FBD
:200E1000F815E1BFFFC400BFFE15E0BFFB4400BFFD15E0BFFC15E03F0204D160FA17E13F9A
:200E2000FA800211FF15E0BFFF17E0BF051E1000FA17E13F03800212FF15E0BF004400804B
:200E3000FC15E0BFFF17E0BF2C261000FF17E13F14000212FE15E0BFFE17E0BF030E1000F6
:200E4000FE17E0BFFD15E0BF26060000FE17E0FF883A1805883A1085883A10C590BA1004E2
:200E5000087400C03D0418CE883A10C5FB15E0BFF917E0FF00340090FFC410BF703A18864C
:200E6000FB17E0BF021510C0FC17E0BF051E1000FB17E13FB2C00211FD15E0BFFD17E0BFDA
:200E700010161000FF17E0BF0317108008261000FF17E0BF03171080F817E1FFF917E1BF91
:200E8000FA17E17FFB17E13FE83A103E01060000883A0005FD15E0BF02060000FB4400BFBA
:200E9000FD15E0BFFD17E0BF090E1000FE17E13FD6800211AF000211883A1007FD17E0BFCB
:200EA000C83A008500151880FFC400BF01060000FE17E0BF883AE0370117DFC00017DF003B
:200EB0000204DEC0283AF800FE04DEFF0115DF000104DF00FF15E13FFF17E0BF00D0108023
:200EC000101E1000FF17E0FF883A1805883A1085883A10C590BA1004087400C0883A10C7DF
:200ED0003F15180EFF17E0FF883A1805883A1085883A10C590BA1004087400C0883A10C793
:200EE0003D15180E883A0001883AE0370017DF000104DEC0283AF800FA04DEFF0515DF0017
:200EF0000504DF00FB15E13F303A0005FC15E0BFFC17E0FFFF8400BF703A1884703A100176
:200F0000FC17E0BFFF15E0BFFB17E0BFFD15E0BFFD17E0BF00171080FD17E0FF011718C0CD
:200F1000011510C0FD17E0BF01171080FD17E0FF001718C0001510C0FD17E0BFFD17E0FF13
:200F2000011510C0FD17E0BFFD17E0FF001510C0883A0001FF17E0BFFE15E0BFFE17E0BF62
:200F3000703A1001883A0001883A0001883AE0370017DF000104DEC0283AF800FB04DEFFB8
:200F40000415DFC00315DF000304DF000717D0A0FF15E0BFEE17D0A500441080EE15D0A5F5
:200F50002E060000FF17E0BF00171080FE15E0BFFF17E0BF040310803FCC1080042610001E
:200F6000EE17D0A5021E1000FF17E0BF04051000FF17E0BF02171080EE17D0E51D361880F6
:200F7000FF17E0BF040310803FCC1080191E1000FF17E0BF03171080FF17E0FF051718C0EB
:200F8000883A1809E83A103EFD15E0BFFD17E0BF031E1000FF17E13FDD8002110D060000B0
:200F9000FF17E0BF021710C0FD17E0BF883A1887FF17E0BF021510C0FF17E0BF021710C055
:200FA000EE17D0A5032E1880FF17E0BF004400C0040510C0FE17E0BFFF15E0BFFF17E0FF00
:200FB0000704D0A0CF1E18BF883A0001883A0001883AE0370117DFC00017DF000204DEC032
:200FC000283AF800FF04DEFF0015DF00883AD83970FA0001883A0001883AE0370017DF0013
:200FD0000104DEC0283AF800FA04DEFF0515DFC00415DF000404DF00FD15E13FFC15E17FEE
:200FE000FC17E0BF00171080FF15E0BFFD17E13F4500021200441080FE15E0BF0D060000BF
:200FF000FF17E0BF02171080FE17E0FF883A180DFD17E17F883A10092D800212021E100068
:20100000FF17E0BF07060000FF17E0BF00171080FF15E0BFFF17E0FFFC17E0BFF01E18BF73
:20101000883A0005883AE0370117DFC00017DF000204DEC0283AF800FB04DEFF0415DFC0E1
:201020000315DF000304DF00FD15E13F0017D0A0FF15E0BF31060000FF17E0BF02171080D2
:20103000883A100945000212FE15E0BFFF17E0BF021710C0FE17E0BFFFC410BF883A188577
:20104000000310803FCC1080201C1080E00410BF0BD81080031E1000FE17E0BFFFC410BFF9
:20105000FE15E0BFFE17E0BFFD17E0FF883A1885000310803FCC1080201C1080E00410BF1B
:201060000BE01080081E1000FE17E0BFFD17E0FF883A1885000310803FCC1080201C1080BF
:20107000E00410BF0A1E1000FF17E0BF02171080FE17E0FF883A180DFD17E17F883A1009ED
:201080002D800212021E1000FF17E0BF07060000FF17E0BF00171080FF15E0BFFF17E0FF99
:201090000004D0A0CC1E18BF883A0005883AE0370117DFC00017DF000204DEC0283AF800C0
:2010A000FC04DEFF0315DF000304DF00FD15E13FFA0400BFFE15E0BFFF15E03F1D0600007F
:2010B000FF17E0FF883A1805883A1085883A10C590BA1004087400C0883A10C73D17188E31
:2010C000111E1000FF17E0FF883A1805883A1085883A10C590BA1004FD17E13F087400C041
:2010D000883A10C73D15190E0417D0E0FF17E0BF020E1880FF17E0BF0415D0A0FF17E0BFD3
:2010E000FE15E0BF07060000FF17E0BF00441080FF15E0BFFF17E0BF08101080E01E103F4B
:2010F000883A0001FE17E0BF883AE0370017DF000104DEC0283AF800FE04DEFF0115DF00C9
:201100000104DF00FF15E13FFF17E0BFFE8410BF042810C0191E180090BA1006087400800A
:20111000883A18858B171088683A1000226C0021226C0021227C0021227C0021227C0021D9
:20112000226C002122740021227C0021226C0021226C0021227C0021226C00212274002107
:20113000227C0021227C0021226C00210044008003060000883A000501060000883A000510
:20114000883AE0370017DF000104DEC0283AF800883A200B883A000F883A000D883A00096B
:201150004E810212FE04DEFF883A000B0015DC000115DFC0883A2021578002120874008060
:20116000AF17110F0F17208001261000E83A103E883A800969800212013030800B1E1000BA
:20117000B03A214400CC1080171E1000001720C000172880141E1880FF0431BF0128308023
:201180000104210001042940F81E103FFFC430BF0B26300000441180883A218D01060000F7
:201190000726218000032080000328C00044210000442940FA2610FFC83A10C5283AF80071
:2011A000883A0005283AF800FFC430BFF106003F043030C0883A20052D1E1800B03A29069F
:2011B00000CC18C0351E1800FC0432FFD13A5816883A280F883A200700445AC0913A5816ED
:2011C000883A22D50117390000173A4002173A00011519000317390000151A4002151A00FF
:2011D00003151900040418C0040439C0F51E50FF030C3100883A2ACB03CC3200222620002B
:2011E000883A280F883A1813010439C0FF173ABFC83A41C9883A290900154A8001282100D3
:2011F00001044A40F81E203FFF04413FD0BA200800CC3180FFC431FF0044210090BA20085F
:20120000883A1907883A290B041E3000283AF800883A2007FFC431FFFC26303F004439C0A0
:20121000883A19CF00032980004418C000442940FFC519BFFB1E38FF283AF800FFC431FF66
:20122000883A2007F506003F883A400DF106003F00CC208009261000883A200503060000AB
:201230000044108000CC10C005261800000710C0FB1E183FC83A1105283AF800883A20054B
:2012400000171140BFF401FFBFC439FF883A29C7207401A0303A014A703A1946200431A01E
:20125000703A1986071E18000117114001041080883A29C7303A014A703A1946703A198641
:20126000F926183F000710C0EA26183F004710C000441080E726183F004710C00044108080
:20127000FA1E183FE306003F08740080AF1710CF5217188017261000011710C008081A00C6
:201280001B1E40000B26200090BA181000440240983A48D2883A12112215418062171180B9
:2012900000982100B03A324C62151180421541C00B2620000084190090BA2008004418C041
:2012A000011510C0883A110500151140883A0005283AF8005304188052151880E606003FD0
:2012B00063171100B03A225263151240F106003FFFC400BF283AF800F704DEFF0874008085
:2012C0000315DCC0AF1714CF0215DC800815DFC052179C800715DDC00615DD800515DD4095
:2012D0000415DD000115DC400015DC0010269000883A202B883A282D004405000117940006
:2012E000FFC4847F0A1688000044840090BA8020883A94211126B000401780800F2615804F
:2012F000FFC48C7FFFD888BFFF04843FF91E103F0817DFC00717DDC00617DD800517DD409A
:201300000417DD000317DCC00217DC800117DC400017DC000904DEC0283AF8000117908056
:2013100000178180FFC410BF1726144000158000EB26303F983AA44662179080011795C0BB
:20132000703A1884081E1000E83A303E011790C052179880011E1DC0E12690BFE426103F0D
:20133000883A1025D506003F6317908020178100703A1886061E1800883A200B883AA80966
:20134000E83A303EF106003F01159440E806003FE83A303EED06003FFD04DEFF0215DF001A
:201350000204DF00FE15E13F883A0001FE17E0BFFF15E0BFFF17E0BF02261000F070002AC4
:2013600001060000F0B0002A883A0001FF06003F642F76656A2F61745F6761757472000037
:20137000642F76656A2F61745F67617574720000642F7665702F78696C65625F66756566D9
:2013800000720000642F7665722F73656D616C705F65623174690000642F7665722F73652F
:201390006D616C705F65343269620074642F7665762F6167725F73656D616C700065000097
:2013A000642F76656E2F6C75006C00000000000000000000000000000000000000000000D5
:2013B00000000000000000000000000000000000000000000000000000000000000000001D
:2013C00000000000000000000000000000000000000000000000000000000000000000000D
:2013D0000000000000000000000000000000000000000000000000000000000000000000FD
:2013E0000000000000000000000000000000000000000000000000000000000000000000ED
:201F600000000000000000000000000026E000210000000008F0002108300021089000210F
:201F700000000000000000000940002110600022000A00000000000000000000000000004B
:201F8000000000000000000000000000000000000000000000000000000000000000000041
:201F9000000000000000000000000000000000000000000000000000000000000000000031
:201FA000000000000000000000000000000000000000000000000000000000000000000021
:201FB000000000000000000000000000000000000000000000000000000000000000000011
:2027900000000000000000000000000026F0002100000000000000000000000000000000F2
:2027A000000000000000000000000000105000220000000000000000000000000002000095
:2027B0000140000000F000000001000001FF0000000A000000FF00000000000000000000CE
:2027C0002704002100000000000000000000000000000000000000000000000000000000AD
:2027D0000008002000000000000000000000000000000000000000000000000000000000C1
:2027E000000000002718002100000000000000000000000000000000000000000000000079
:2027F00000000000106C00220000000000000000000000000000000000000000000000002B
:202800000000000000000000272C0021000000000000000000000000000000000000000044
:20281000000000000000000000040020000000000000000000000000000000000000000084
:20282000000000003EA000213EA000212740002100000000000000000000000015100021CC
:2028300000000000000000000000000038CC0021000000000000000038CC0021000000003E
:202840000000000038CC002100000000000000000000000000000000000000000000000053
:20285000000000000000000000000000000000000000000000000000000000000000000068
:20286000000000000000000000000000000000000000000000000000000000000000000058
:20287000000000000000000000000000000000000000000000000000000000000000000048
:20288000000000000000000000000000000000000000000000000000000000000000000038
:20289000000000000000000000000000000000000000000000000000000000000000000028
:2028A000000000000000000000000000000000000000000000000000000000000000000018
:2028B000000000000000000000000000000000000000000000000000000000000000000008
:2028C0000000000000000000000000000000000000000000000000000000000000000000F8
:2028D0000000000000000000000000000000000000000000000000000000000000000000E8
:2028E0000000000000000000000000000000000000000000000000000000000000000000D8
:2028F000000000000000000000000000000000003D6000213DC800213E3000210000000055
:202900000000000000000000000000000000000000000000000000000000000000000000B7
:202910000000000000000000000000000000000000000000000000000000000000000000A7
:20292000000000000000000000000000000000000000000000000000000000000000000097
:20293000000000000000000000000000000000000000000000000000000000000000000087
:20294000000000000000000000000000000000000001000000000000330EABCD1234E66D24
:20295000DEEC0005000B00000000000000000000000000000000000000000000000000008D
:20296000000000000000000000000000000000000000000000000000000000000000000057
:20297000000000000000000000000000000000000000000000000000000000000000000047
:20298000000000000000000000000000000000000000000000000000000000000000000037
:20299000000000000000000000000000000000000000000000000000000000000000000027
:2029A000000000000000000000000000000000000000000000000000000000000000000017
:2029B000000000000000000000000000000000000000000000000000000000000000000007
:2029C0000000000000000000000000000000000000000000000000000000000000000000F7
:2029D0000000000000000000000000000000000000000000000000000000000000000000E7
:2029E0000000000000000000000000000000000000000000000000000000000000000000D7
:2029F0000000000000000000000000000000000000000000000000000000000000000000C7
:202A00000000000000000000000000000000000000000000000000000000000000000000B6
:202A10000000000000000000000000000000000000000000000000000000000000000000A6
:202A2000000000000000000000000000000000000000000000000000000000000000000096
:202A3000000000000000000000000000000000000000000000000000000000000000000086
:202A4000000000000000000000000000000000000000000000000000000000000000000076
:202A5000000000000000000000000000000000000000000000000000000000000000000066
:202A6000000000000000000000000000000000000000000000000000000000000000000056
:202A7000000000000000000000000000000000000000000000000000000000000000000046
:202A8000000000000000000000000000000000000000000000000000000000000000000036
:202A9000000000000000000000000000000000000000000000000000000000000000000026
:202AA000000000000000000000000000000000000000000000000000000000000000000016
:202AB000000000000000000000000000000000000000000000000000000000000000000006
:202AC0000000000000000000000000000000000000000000000000000000000000000000F6
:202AD0000000000000000000000000000000000000000000000000000000000000000000E6
:202AE0000000000000000000000000000000000000000000000000000000000000000000D6
:202AF0000000000000000000000000000000000000000000000000000000000000000000C6
:202B0000000000000000000000000000000000003E9800213E98002138CC002138CC00217D
:202B1000FFFFFFFF00000000FFFFFFFF3EB400213EB400213A7400213A74002100000000E9
:202B2000000000000000000000000000000000000000000000000000000000000000000095
:202B3000000000000000000000000000000000000000000000000000000000000000000085
:202B4000000000000000000000000000000000000000000000000000000000000000000075
:202B5000000000000000000000000000000000000000000000000000000000000000000065
:00000001FF
